:020000040000FA
:100000000C94820A0C943A140C9413140C949F0AC6
:100010000C949F0A0C949F0A0C949F0A0C949F0ABC
:100020000C949F0A0C949F0A0C949F0A0C949F0AAC
:100030000C949F0A0C9461140C949F0A0C949F0AD0
:100040000C94C9130C949F0A0C949F0A0C949F0A59
:100050000C949F0A0C949F0A0C949F0A0C949F0A7C
:100060000C949F0A0C949F0A6047FFFFFFFFFFFF5D
:10007000DFFFFFFFFFFFFFFFFFFFFFFC01FFFFFFB1
:10008000FFFFFFFFFFFFFFC0007FFFFFFFFFFFFF3E
:10009000FFFFFE000001FFFFFFFFFFFFFFFFF0007B
:1000A00000003FFFFFFFFFFFFFFF0000000007FF12
:1000B000FFFFFFFFFFF000000000003FFFFFFFFF1A
:1000C000FF00000000000007FFFFFFFFF800000036
:1000D000000000007FFFFFFF800000000000000024
:1000E00007FFFFF8000000000000000000FFFFC055
:1000F0000000000000000000000FFC0000000000F5
:10010000000000000001F0000000000000000000FE
:100110000001F00000000000000000000007F3E014
:100120000000000000000000007FF3FC0000000061
:100130000000000007FFF3FFC00000000000000007
:10014000FFFFF3FFFC0000000F800003FFFFF3FF41
:10015000FFC0000009C0003FFFFFF3FFFFFC0000ED
:1001600008C001FFFFFFF3FFFFFC000008C003FF12
:10017000FFFFE3FFFFFE000008C003FFFFFFE3FFF8
:10018000FFFC00000FC003FFFFFFE3FFFFFC003197
:100190008F0003FFFFFFE3FFFFFC00318C0003FF34
:1001A000FFFFE3FFFFFC00318C0001FFFFFFE3FFD7
:1001B000FFFC00338C0001FFFFFFE3FFFFFC003F6B
:1001C0008C0001FFFFFFE3FFFFF80020CC0001FFE0
:1001D000FFFFE3FFFFF80060080001FFFFFFE3FF00
:1001E000FFFC0040000001FFFFFFE3FFFFFE0000F7
:1001F000000007FFFFFFE3FFFFFFE0000000FFFF3D
:10020000FFFFE3FFFFFFFC000003FFFFFFFFE3FF33
:10021000FFFFFF80001FFFFFFFFFE3FFFFFFFFF077
:1002200001FFFFFFFFFFE3FFFFFFFFFE07FFFFFFF1
:10023000FFFFC1FFFFFFFFFFFFFFFFFFFFFFC1FF4A
:10024000FFFFFFFFFFFFFFFFFFFFC1FFFFFFFFFFFC
:10025000FFFFFFFFFFFFC1FFFFFFFFFFFFFFFFFFEC
:10026000FFFFC1FFFFFFFFFFFFFFFFFFFFFFC1FF1A
:10027000FFFFFFFFFFFFFFFFFFFFC1FFFFFFFFFFCC
:10028000FFFFFFFFFFFFC1FFFFFFFFFFFFFFFFFFBC
:10029000FFFFC1FFFFFFFFFFFFFFFFFFFFFFC1FFEA
:1002A000FFFFFFFFFFFFFFFFFFFFC1FFFFFFFFFF9C
:1002B000FFFFFFFFFFFFC1FFFFFFFFFFFFFFFFFF8C
:1002C000FFFFC1FFFFFFFFFFFFFFFFFFFFFFC1FFBA
:1002D000FFFFFFFFFFFFFFFFFFFFC1FFFFFFFFFF6C
:1002E000FFFFFFFFFFFFC1FFFFFFFFFFFFFFFFFF5C
:1002F000FFFFC1FFFFFFFFFFFFFFFFFFFFFF81FFCA
:10030000FFFFFFFFFFFFFFFFFFFF81FFFFFFFFFF7B
:10031000FFFFFFFFFFFF81FFFFFFFFFFFFFFFFFF6B
:10032000FFFF81FFFFFFFFFFFFFFFFFFFFFF81FFD9
:10033000FFFFFFFFFFFFFFFFFFFF81FFFFFFFFFF4B
:10034000FFFFFFFFFFFF81FFFFFFFFFFFFFFFFFF3B
:10035000FFFF81FFFFFFFFFFFFFFFFFFFFFF81FFA9
:10036000FFFFFFFFFFFFFFFFFFFF81FFFFFFFFFF1B
:10037000FFFFFFFFFFFF81FFFFFFFFFFFFFFFFFF0B
:10038000FFFF81FFFFFFFFFFFFFFFFFFFFFF81FF79
:10039000FFFFFFFFFFFFFFFFFFFF81FFFFFFFFFFEB
:1003A000FFFFFFFFFFFF81FFFFFFFFFFFFFFFFFFDB
:1003B000FFFFFFFFFFFFFFFFFFFFFFFFFFFF08083B
:1003C0000000000000000000007E81A581BD998131
:1003D0007E7EFFDBFFC3E7FF7E6CFEFEFE7C3810F7
:1003E0000010387CFE7C381000387C38FEFED610B9
:1003F0003810387CFEFE7C10380000183C3C180099
:1004000000FFFFE7C3C3E7FFFF003C664242663CD4
:1004100000FFC399BDBD99C3FF0F070F7DCCCCCCA6
:10042000783C6666663C187E183F333F303070F08B
:10043000E07F637F636367E6C018DB3CE7E73CDB94
:100440001880E0F8FEF8E08000020E3EFE3E0E024C
:1004500000183C7E18187E3C186666666666006664
:10046000007FDBDB7B1B1B1B003E613C66663C8622
:100470007C000000007E7E7E00183C7E187E3C18CA
:10048000FF183C7E1818181800181818187E3C1809
:100490000000180CFE0C180000003060FE603000F8
:1004A000000000C0C0C0FE0000002466FF662400FB
:1004B0000000183C7EFFFF000000FFFF7E3C18009C
:1004C000000000000000000000183C3C1818001854
:1004D0000066662400000000006C6CFE6CFE6C6C14
:1004E00000183E603C067C180000C6CC183066C67A
:1004F00000386C3876DCCC7600181830000000002C
:10050000000C18303030180C0030180C0C0C18305F
:100510000000663CFF3C6600000018187E181800BA
:100520000000000000001818300000007E000000ED
:10053000000000000000181800060C183060C08091
:10054000007CC6CED6E6C67C001838181818187E6F
:10055000007CC6061C3066FE007CC6063C06C67CD7
:10056000001C3C6CCCFE0C1E00FEC0C0FC06C67C11
:10057000003860C0FCC6C67C00FEC60C18303030A7
:10058000007CC6C67CC6C67C007CC6C67E060C78CF
:10059000000018180000181800001818000018189B
:1005A00030060C1830180C060000007E00007E009B
:1005B000006030180C183060007CC60C1818001849
:1005C000007CC6DEDEDEC07800386CC6FEC6C6C65D
:1005D00000FC66667C6666FC003C66C0C0C0663C8B
:1005E00000F86C6666666CF800FE6268786862FE09
:1005F00000FE6268786860F0003C66C0C0CE663A73
:1006000000C6C6C6FEC6C6C6003C18181818183C58
:10061000001E0C0C0CCCCC7800E6666C786C66E6A0
:1006200000F06060606266FE00C6EEFEFED6C6C6E2
:1006300000C6E6F6DECEC6C6007CC6C6C6C6C67C0A
:1006400000FC66667C6060F0007CC6C6C6C6CE7CD8
:100650000EFC66667C6C66E6007CC660380CC67C68
:10066000007E7E5A1818183C00C6C6C6C6C6C67C90
:1006700000C6C6C6C6C66C3800C6C6C6D6D6FE6C90
:1006800000C6C66C386CC6C6006666663C18183C68
:1006900000FEC68C183266FE003C30303030303CF4
:1006A00000C06030180C0602003C0C0C0C0C0C3C1A
:1006B0000010386CC60000000000000000000000C0
:1006C000FF30180C00000000000000780C7CCC7695
:1006D00000E0607C666666DC0000007CC6C0C67C0C
:1006E000001C0C7CCCCCCC760000007CC6FEC07C10
:1006F000003C6660F86060F000000076CCCC7C0CBA
:10070000F8E0606C766666E6001800381818183C49
:1007100000060006060666663CE060666C786CE6DD
:10072000003818181818183C000000ECFED6D6D671
:10073000000000DC666666660000007CC6C6C67CFB
:10074000000000DC66667C60F0000076CCCC7C0C9F
:100750001E0000DC766060F00000007EC07C06FCBD
:10076000003030FC3030361C000000CCCCCCCC76D5
:10077000000000C6C6C66C38000000C6D6D6FE6CA7
:10078000000000C66C386CC6000000C6C6C67E06F7
:10079000FC00007E4C18327E000E18187018180EDF
:1007A0000018181818181818007018180E18187053
:1007B0000076DC0000000000000010386CC6C6FEA9
:1007C0000060F0607C6666660CFC607C6666666C49
:1007D000001C10007E606060003820FEC0C0C0C0F9
:1007E000006C007CC6FEC07C006CFE62786062FE1D
:1007F0000000007CC6F0C67C003C66C0F8C0663CC9
:100800000000007EC07C06FC007CC660380CC67C04
:100810000030003030303078007830303030307890
:1008200000CC00303030307800663C181818183C86
:100830000018001818181818701E0C0C0C0CCC7826
:1008400000000070505C52DC0070505C525252DC70
:10085000000000A0A0FCA2BC00A0A0A0FCA2A2BC22
:100860000060F0607C66666600F8607C66666666BE
:10087000001C10C6D8F8CCC60018D6CCF8F8CCC6E8
:10088000006C38C6C6C67E067C38C6C67E06C67CE8
:10089000000000C6C6C6C6FE10C6C6C6C6C6C6FE90
:1008A000100000DCD6F6D6DC00DCD6D6F6D6D6DCD8
:1008B000000000F0B03C363C00F0F0B03C36363C76
:1008C000000000780C7CCC76003E66C6C6FEC6C62C
:1008D00000067CC07CC6C67C00FE66607C6666FC4A
:1008E000000000CCCCCCCCFE06CCCCCCCCCCCCFE0E
:1008F0000600003C6C6C6CFEC61E3666666666FFC3
:10090000C300007CC6FEC07C00FE6268786862FEA0
:100910000000007CD6D67C10387CD6D6D67C103829
:10092000000000FE666060F000FE6660606060F0DF
:1009300000003366CC6633000000CC663366CC0022
:1009400000228822882288228855AA55AA55AA55AD
:10095000AADB77DBEEDB77DBEE181818181818180F
:100960001818181818F81818180000C66C386CC633
:1009700000C6C66C386CC6C6000000C6CEDEF6E601
:1009800000C6C6CEDEF6E6C6003636F606F63636C3
:100990003636363636363636360000FE06F636360B
:1009A000363636F606FE0000000038C6CEDEF6E625
:1009B0000038C6CEDEF6E6C60000000000F81818C3
:1009C00018181818181F00000018181818FF000031
:1009D0000000000000FF181818181818181F181821
:1009E0001800000000FF00000018181818FF181861
:1009F000180000E66C786CE600E66C78786C66E6C9
:100A000000363637303F00000000003F30373636C2
:100A1000363636F700FF0000000000FF00F73636DC
:100A20003636363730373636360000FF00FF0000E6
:100A3000003636F700F736363600C67CC6C67CC6AA
:100A40000000003E666666E6001E3666666666C69E
:100A5000000000C6FEFED6C600C6EEFEFED6C6C626
:100A6000000000C6C6FEC6C600C6C6C6FEC6C6C6CE
:100A70000000007CC6C6C67C007CC6C6C6C6C67C56
:100A8000000000FEC6C6C6C60018181818F80000F8
:100A900000000000001F181818FFFFFFFFFFFFFFF6
:100AA000FF00000000FFFFFFFFFEC6C6C6C6C6C6A9
:100AB0000000007EC67E66C600FFFFFFFF0000004C
:100AC000007EC6C6C67E66C6000000FC66667C6008
:100AD000F0FC6666667C60F00000007CC6C0C67CE8
:100AE000007CC6C0C0C0C67C0000007E5A18183CFE
:100AF000007E5A181818183C000000C6C6C67E06AC
:100B00007CC6C6C67E06C67C000000D67C387CD675
:100B100000D6D67C387CD6D6000000FC667C66FC0D
:100B200000FC66667C6666FC000000F0607C66FC8B
:100B300000F060607C66667C008FCDEFFCDCCCCC86
:100B4000000000007C7C0000000000C6C6F6DEF657
:100B500000C6C6C6F6DEDEF60000007CC61CC67CFB
:100B6000007CC6063C06C67C000000D6D6D6D6FE63
:100B700000D6D6D6D6D6D6FE0000007CC61EC67CD1
:100B800000788C063E068C78000000D6D6D6D6FFBC
:100B900003D6D6D6D6D6D6FF030000C6C67E060636
:100BA00000C6C6C67E060606003E613C66663C86FA
:100BB0007C00003C3C3C3C000000000000000000C9
:100BC000000808000000000000000000003E415541
:100BD0004155493E003E7F6B7F6B773E0022777F19
:100BE0007F3E1C0800081C3E7F3E1C0800081C2A93
:100BF0007F2A081C00081C3E7F3E081C00001C3E8B
:100C00003E3E1C00FFFFE3C1C1C1E3FF00001C2208
:100C100022221C00FFFFE3DDDDDDE3FF000F030503
:100C20003948483000083E081C22221C00181410C5
:100C300010307060000F19111337766000082A1CFD
:100C4000771C2A080060787E7F7E786000030F3F63
:100C50007F3F0F0300081C2A082A1C0800666666EE
:100C600066006666003F65653D050505000C324877
:100C700024124C3000000000007F7F7F00081C2AF7
:100C8000082A1C3E00081C3E7F1C1C1C001C1C1C4F
:100C90007F3E1C0800080C7E7F7E0C080008183F71
:100CA0007F3F18080000007070707F7F00001422E2
:100CB0007F22140000081C1C3E3E7F7F007F7F3E89
:100CC0003E1C1C08000000000000000000183C3C16
:100CD0001818001800363614000000000036367F61
:100CE000367F363600081E201C023C080060660C69
:100CF00018306606003C663C2865663F00181818E8
:100D000030000000006030181818306000060C1821
:100D100018180C060000361C7F1C3600000008085E
:100D20003E08080000000000303030600000000085
:100D30003C00000000000000000060600000060CA5
:100D400018306000003C666E7666663C0018183805
:100D50001818187E003C66060C30607E003C660663
:100D60001C06663C000C1C2C4C7E0C0C007E607C2F
:100D70000606663C003C66607C66663C007E660C4F
:100D80000C181818003C66663C66663C003C6666BB
:100D90003E06663C000018180018180000001818DD
:100DA0000018183000060C1830180C060000003C23
:100DB000003C0000006030180C183060003C6606F3
:100DC0001C1800180038445C58423C00003C666621
:100DD0007E666666007C66667C66667C003C666055
:100DE0006060663C007C66666666667C007E60606D
:100DF0007C60607E007E60607C606060003C66605D
:100E0000606E663C006666667E666666003C181824
:100E10001818183C001E0C0C0C6C6C3800666C78B2
:100E200070786C66006060606060607E0063777FF1
:100E30006B6363630063737B6F676363003C666629
:100E40006666663C007C6666667C6060003C666642
:100E5000666E3C06007C66667C786C66003C66606C
:100E60003C06663C007E5A1818181818006666661C
:100E70006666663E0066666666663C180063636387
:100E80006B7F7763006363361C3663630066666658
:100E90003C181818007E060C1830607E001E1818CA
:100EA0001818181E00006030180C0600007818187A
:100EB00018181878000814224100000000000000F3
:100EC0000000007F000C0C06000000000000003C49
:100ED000063E663E006060607C66667C0000003C0A
:100EE0006660663C000606063E66663E0000003C04
:100EF000667E603C001C3630307C303000003E6640
:100F0000663E063C006060607C6666660000180015
:100F10001818183C000C000C0C6C6C3800606066F3
:100F20006C786C6600181818181818180000006300
:100F3000777F6B6B0000007C7E6666660000003C7D
:100F40006666663C00007C66667C606000003C6C07
:100F50006C3C0D0F0000007C666660600000003E87
:100F6000403C027C000018187E181818000000662B
:100F70006666663E0000000066663C18000000637E
:100F80006B6B6B3E000000663C183C660000006620
:100F9000663E063C0000003C0C18303C000E181861
:100FA0003018180E001818180018181800701818A3
:100FB0000C1818700000003A6C00000000081C3685
:100FC0006341417F0608200000000000000000404F
:100FD00040404040004000505050000000000000E1
:100FE0000050F850F850002070A0702870200000C9
:100FF000C8D0205898000020508040A89068004039
:101000004040000000000010204040402010004000
:1010100020101010204000103810000000000000C8
:101020002020F82020000000000000001010000028
:101030000000F800000000000000000010000000A8
:10104000081020408000007088A8A8887000002048
:10105000602020207000007088102040F80000F808
:1010600010201088700000909090F810100000F888
:1010700080F008887000007080F08888700000F8A8
:101080000810204080000070887088887000007010
:101090008888780870000000002000002000000010
:1010A0000020002020400000186080601800000030
:1010B0000078007800000000C0300830C0000060F8
:1010C00090202000200000708898A8908870002050
:1010D0005088F888880000F088F08888F000007058
:1010E00088808088700000F088888888F00000F888
:1010F00080F88080F80000F880F080808000007028
:10110000888098887000008888F888888800007037
:1011100020202020700000381010109060000088FF
:1011200090E0A0908800008080808080F800008897
:10113000D8A8A8888800008888C8A8988800007067
:1011400088888888700000F088F0808080000070B7
:101150008888A890680000F088F0A0908800007847
:1011600080700808F00000F820202020200000886F
:1011700088888888700000888888885020000088C7
:1011800088A8A8A8500000885020508888000088AF
:1011900088502020200000F808102040F80000E0CF
:1011A00080808080E000000080402010080000382F
:1011B0000808080838000020500000000000000067
:1011C0000000000000F80080400000000000000067
:1011D000601070906000008080E09090E00000005F
:1011E00000708080700000101070909070000000FF
:1011F0006090F0807000003040E04040400000000F
:10120000609070101060008080E09090900000204E
:1012100000202020700000100030101010600080AE
:1012200090A0C0A09000006020202020700000004E
:101230000050A8A8A800000000F0888888000000DE
:101240000060909060000000006090F080800000DE
:10125000006090F01010000000B048404000000016
:10126000304020106000004040E04040400000005E
:1012700000909090600000000088885020000000DE
:101280000088A8A850000000885020508800000066
:10129000009090604080000000F02040F0000020AE
:1012A000404080404020002020202020202000209E
:1012B0001010081010200040A810000000000000CE
:1012C00000000000000000040620000000000000F4
:1012D000404040004000A0A000000000A0E0A0E0CE
:1012E000A0004060C060C000A0204080A00020405E
:1012F000C0A0E000808000000000408080804000AE
:1013000080404040800040A0400000000040E0409D
:1013100000000000008080000000E00000000000ED
:1013200000008000202040808000E0A0A0A0E0001D
:1013300040C04040E000E020E080E000E020E0200D
:10134000E000A0A0E0202000E080E020C000C080FD
:10135000E0A0E000E02040808000E0A0E0A0E0000D
:10136000E0A0E0206000004000400000004000409D
:10137000800020408040200000E000E0000080402D
:1013800020408000C02040004000E0A0A0E0E0003D
:10139000E0A0E0A0A000C0A0E0A0C000E0808080AD
:1013A000E000C0A0A0A0C000E080E080E000E080FD
:1013B000E0808000E08080A0E000A0A0E0A0A0008D
:1013C000E0404040E000202020A0E00080A0C0C01D
:1013D000A00080808080E000A0E0E0A0A000C0A08D
:1013E000A0A0A00040A0A0A04000E0A0E08080005D
:1013F00040A0A0E06600E0A0C0E0AA00E080E020FD
:10140000E000E04040404000A0A0A0A0E000A0A07C
:10141000A0A04000A0A0E0E0A200A0A040A0A000EA
:10142000A0A040404000E0204080E000C0808080DC
:10143000C000008040202000C0404040C00040A0CC
:101440000000000000000000E000804000000000FC
:101450000060A0A060008080C0A0C000006080800C
:101460006000202060A0600040A0E080600060403C
:10147000E040400060A06020C0008080C0A0A000CC
:1014800040004040400040004040C0008080A0C07C
:10149000A000C0404040E00000A0E0A0A00000C0CC
:1014A000A0A0A0000040A0A0400000C0A0C08000FC
:1014B0000060A060200000C0A0808000006040208C
:1014C000600040E04040400000A0A0A0600000A0FC
:1014D000A0A0400000A0A0E0A00000A04040A0000C
:1014E00000A0E020400000E04080E0002040C0403C
:1014F000220040400040400080406040800000A04A
:101500004000000011241FBECFEFD8E0DEBFCDBFEA
:1015100011E0A0E0B1E0EEE3F6E302C005900D9229
:10152000AE30B107D9F721E0AEE0B1E001C01D92C5
:10153000A937B207E1F70E9488140C941D1B0C9484
:10154000000010925D0110925E01E0917301F09134
:10155000740190916E0180916D019F01989F200D03
:10156000311D1124C901E817F90711F01192FBCFC1
:1015700008952F923F924F925F926F927F928F9237
:101580009F92AF92BF92CF92DF92EF92FF920F9312
:101590001F93CF93DF93CDB7DEB728970FB6F8949C
:1015A000DEBF0FBECDBFB82FB77078E07B1B011137
:1015B00006C0FA01E20FF31F04912F5F3F4FE110C5
:1015C00006C0FA01E20FF31FE4902F5F3F4FA02FF8
:1015D000A770069506950695AA2309F4AEC00F5F7D
:1015E00090916E016B2E712CA60DB72DB11DEFEFF2
:1015F000F0E05F010A2E02C0B594A7940A94E2F7C6
:10160000BC82AB82A72EB12CBA82A98201C0EE0F98
:101610007A95EAF78B80013009F0812C8E2A5D01E2
:1016200078E0A71AB108EFEFF0E002C0F595E79572
:10163000AA94E2F7FE2E9B80A92EB12CBC82AB822D
:10164000869586958695969FB0011124860F972FD3
:10165000911DB12C602F6150770B7E836D83EB144D
:1016600009F497C0E0915B01F0915C01E80FF91F6C
:10167000D0806D2D68216083F901E40FF51FB90159
:101680006F5F7F4F78876F83CC2009F458C0A49098
:10169000A094E0915B01F0915C01E80FF91F6A2DC5
:1016A00070E0062C02C0759567950A94E2F7708188
:1016B000672B60832D803E806F817885260E371ED4
:1016C0002C01421A530A0F811885040D151D6091D3
:1016D0005B0170915C012A2D30E0098002C0220F6D
:1016E000331F0A94E2F7EF81F885E215F30558F508
:1016F000FB01E00FF11FD0802083EF81F885E40F1C
:10170000F51FCC20F1F0A490A094E0915B01F09142
:101710005C01E00FF11F2A2D30E0062C02C0359548
:1017200027950A94E2F73081232B20832F81388577
:101730002F5F3F4F38872F83C6CFA8E051CFA490AB
:10174000A8CFA490E2CFA830B105C8F4F801319732
:10175000E60FF71FD9206081D62AD082E0915B0185
:10176000F0915C01E00FF11F3081232B2083B394B3
:101770006B817C81860F971F2F81388570CFFB018D
:10178000E00FF11F6081A830B10541F36F21608344
:10179000E5CF28960FB6F894DEBF0FBECDBFDF9120
:1017A000CF911F910F91FF90EF90DF90CF90BF905E
:1017B000AF909F908F907F906F905F904F903F90F1
:1017C0002F900895CF92EF920F93CF93DF93242F12
:1017D000CBE5D1E04F815885FA0132969491DA0138
:1017E0001196FD01E490FA010491FD01A491291BD9
:1017F0002A9F900111242D5F3F4FCC800E94B90A8F
:10180000DF91CF910F91EF90CF90089580915E017D
:1018100090916D01E0916201F09163013196249104
:10182000492F421B550B84171506CCF0E491A0916B
:101830007301B091740180916E019D01E89F200DAC
:10184000311D1124F9019D01989F200D311D112496
:10185000E217F30740F480818D931192F9CFE49160
:10186000E80FE0935E010895CF93C82F8A3009F402
:1018700053C088F5882399F1883009F452C08091CB
:101880005D01E0916201F0916301E49120916E01AC
:1018900098E0299F900111242E1B31094C2F609153
:1018A0005E018217130651F04CF010925D010E9408
:1018B000060C4C2F60915E0180915D010E94E20B4D
:1018C000E0916201F09163018491E0915D01E80F84
:1018D000E0935D0104C08D30A1F18E3081F68091DE
:1018E0006001882389F180915D01E0916201F091AE
:1018F0006301E49120916E0198E0299F90011124E9
:101900002E1B31098217130609F0F4F44FE560919C
:101910005E01CF910C94E20B10925D010E94060CC7
:10192000DECFE0916201F0916301E49180915D016D
:101930008E1B80935D0140E260915E010E94E20B8C
:10194000CECF10925D01CBCFCF9108950F93CF935F
:10195000DF93E4E6F1E0A785B089C0911601D0914C
:1019600017018285AC0FBD1F0BB10F7703C000FAC2
:1019700007F90BB90D90000007FA07F90BB9000041
:101980000000000006FA07F90BB900000000000093
:1019900005FA07F90BB900000000000004FA07F986
:1019A0000BB900000000000003FA07F90BB90000B2
:1019B0000000000002FA07F90BB900000000000067
:1019C00001FA07F90BB98A9591F60000000000FAB8
:1019D00007F90BB90BB10F7707FB07F90BB9DF91CB
:1019E000CF910F9108950F93CF93DF93E4E6F1E049
:1019F000A785B089C0911601D09117018285AC0FDF
:101A0000BD1F0BB10F7703C000FA07F90BB90D909A
:101A100007FA07F90BB90000000006FA07F90BB93D
:101A20000000000005FA07F90BB90000000004FAF5
:101A300007F90BB90000000003FA07F90BB9000021
:101A4000000002FA07F90BB900008A9501FA07F9BC
:101A50000BB9D1F6000000FA07F90BB90BB10F77FB
:101A600007FB07F90BB9DF91CF910F9108950F9301
:101A7000CF93DF93E4E6F1E0A785B089C09116012A
:101A8000D09117018285AC0FBD1F02C0000C0BB8AE
:101A90000D9000000BB800000000000C0BB8000017
:101AA0000000000C0BB800000000000C0BB8000098
:101AB0000000000C0BB800000000000C0BB8000088
:101AC000000C8A950BB811F70000000C0BB8000051
:101AD000000000005F98DF91CF910F9108950F9360
:101AE000CF93DF93E4E6F1E0A785B089C0911601BA
:101AF000D09117018285AC0FBD1F8E3191F08D31D1
:101B000051F08C3149F08B3141F08A3139F0893113
:101B100031F0883129F01CC032C048C05EC074C0AA
:101B20008AC00D900BB80000000C0BB80000000C30
:101B30000BB80000000C0BB80000000C0BB8000044
:101B4000000C0BB80000000C0BB80000000C0BB828
:101B50000D900BB80000000C0BB80000000C0BB887
:101B60000000000C0BB80000000C0BB80000000CCB
:101B70000BB80000000C0BB80000000C0BB80D9067
:101B80000BB80000000C0BB80000000C0BB80000F4
:101B9000000C0BB80000000C0BB80000000C0BB8D8
:101BA0000000000C0BB80000000C0BB80D900BB837
:101BB0000000000C0BB80000000C0BB80000000C7B
:101BC0000BB80000000C0BB80000000C0BB80000B4
:101BD000000C0BB80000000C0BB80D900BB8000007
:101BE000000C0BB80000000C0BB80000000C0BB888
:101BF0000000000C0BB80000000C0BB80000000C3B
:101C00000BB80000000C0BB80D900BB80000000CD6
:101C10000BB80000000C0BB80000000C0BB8000063
:101C2000000C0BB80000000C0BB80000000C0BB847
:101C30000000000C0BB80D900BB80000000C0BB8A6
:101C40000000000C0BB80000000C0BB80000000CEA
:101C50000BB80000000C0BB80000000C0BB8000023
:101C6000000C0BB80D900BB80000000C0BB8000076
:101C7000000C0BB80000000C0BB80000000C0BB8F7
:101C80000000000C0BB80000000C0BB80000000CAA
:101C90000BB80D900BB80000000C0BB80000000C46
:101CA0000BB80000000C0BB80000000C0BB80000D3
:101CB000000C0BB80000000C0BB80000000C0BB8B7
:101CC0000D900BB80000000C0BB80000000C0BB816
:101CD0000000000C0BB80000000C0BB80000000C5A
:101CE0000BB80000000C0BB80000000C0BB80D90F6
:101CF0000BB80000000C0BB80000000C0BB8000083
:101D0000000C0BB80000000C0BB80000000C0BB866
:101D10000000000C0BB80000000C0BB80D900BB8C5
:101D20000000000C0BB80000000C0BB80000000C09
:101D30000BB80000000C0BB80000000C0BB8000042
:101D4000000C0BB80000000C0BB80D900BB8000095
:101D5000000C0BB80000000C0BB80000000C0BB816
:101D60000000000C0BB80000000C0BB80000000CC9
:101D70000BB80000000C0BB80D900BB80000000C65
:101D80000BB80000000C0BB80000000C0BB80000F2
:101D9000000C0BB80000000C0BB80000000C0BB8D6
:101DA0000000000C0BB80D900BB80000000C0BB835
:101DB0000000000C0BB80000000C0BB80000000C79
:101DC0000BB80000000C0BB80000000C0BB80000B2
:101DD000000C0BB80D900BB80000000C0BB8000005
:101DE000000C0BB80000000C0BB80000000C0BB886
:101DF0000000000C0BB80000000C0BB80000000C39
:101E00000BB80D900BB80000000C0BB80000000CD4
:101E10000BB80000000C0BB80000000C0BB8000061
:101E2000000C0BB80000000C0BB80000000C0BB845
:101E30000D900BB80000000C0BB80000000C0BB8A4
:101E40000000000C0BB80000000C0BB80000000CE8
:101E50000BB80000000C0BB80000000C0BB80D9084
:101E60000BB80000000C0BB80000000C0BB8000011
:101E7000000C0BB80000000C0BB80000000C0BB8F5
:101E80000000000C0BB80000000C0BB80D900BB854
:101E90000000000C0BB80000000C0BB80000000C98
:101EA0000BB80000000C0BB80000000C0BB80000D1
:101EB000000C0BB80000000C0BB80D900BB8000024
:101EC000000C0BB80000000C0BB80000000C0BB8A5
:101ED0000000000C0BB80000000C0BB80000000C58
:101EE0000BB80000000C0BB80D900BB80000000CF4
:101EF0000BB80000000C0BB80000000C0BB8000081
:101F0000000C0BB80000000C0BB80000000C0BB864
:101F10000000000C0BB80D900BB80000000C0BB8C3
:101F20000000000C0BB80000000C0BB80000000C07
:101F30000BB80000000C0BB80000000C0BB8000040
:101F4000000C0BB80D900BB80000000C0BB8000093
:101F5000000C0BB80000000C0BB80000000C0BB814
:101F60000000000C0BB80000000C0BB80000000CC7
:101F70000BB80D900BB80000000C0BB80000000C63
:101F80000BB80000000C0BB80000000C0BB80000F0
:101F9000000C0BB80000000C0BB80000000C0BB8D4
:101FA0000D900BB80000000C0BB80000000C0BB833
:101FB0000000000C0BB80000000C0BB80000000C77
:101FC0000BB80000000C0BB80000000C0BB80D9013
:101FD0000BB80000000C0BB80000000C0BB80000A0
:101FE000000C0BB80000000C0BB80000000C0BB884
:101FF0000000000C0BB80000000C0BB80D900BB8E3
:102000000000000C0BB80000000C0BB80000000C26
:102010000BB80000000C0BB80000000C0BB800005F
:10202000000C0BB80000000C0BB80D900BB80000B2
:10203000000C0BB80000000C0BB80000000C0BB833
:102040000000000C0BB80000000C0BB80000000CE6
:102050000BB80000000C0BB80D900BB80000000C82
:102060000BB80000000C0BB80000000C0BB800000F
:10207000000C0BB80000000C0BB80000000C0BB8F3
:102080000000000C0BB8000000005F98DF91CF91BA
:102090000F910895209164013091650180916B0149
:1020A00090916C01281739070CF457C08CEA93E023
:1020B00090938900809388001092650110926401CA
:1020C0008091660190916701A0916801B0916901CA
:1020D0000196A11DB11D8093660190936701A093A5
:1020E0006801B09369018091120190911301A09150
:1020F0001401B0911501892B8A2B8B2B51F1809102
:10210000120190911301A0911401B09115011816BC
:1021100019061A061B069CF4809112019091130176
:10212000A0911401B09115010197A109B109809303
:10213000120190931301A0931401B09315018091A3
:10214000640190916501019690936501809364010B
:1021500008951092B1002B98F2CF20916401309134
:10216000650180917201082E000C990B2817390720
:1021700031F78AE490E0909389008093880087EC9F
:1021800090E19093190180931801D9CF089580911F
:1021900064019091650120916A0128171906C1F424
:1021A00010921701109216018091700180937101B5
:1021B00086EF90E19093190180931801809164015A
:1021C0009091650101969093650180936401089553
:1021D000209164013091650180916B0190916C01B7
:1021E0002817390759F78AE490E1E4CF3091840049
:1021F00020916F012A50231B2350F0F72D5F19F017
:102200002A9511F001C00000E0911A01F0911B0124
:1022100009959091710180917001911138C080935E
:10222000710120916E014091160150911701240F08
:10223000352F311D30931701209316012091640131
:10224000309165012F5F3F4F082E000C990B0196CE
:1022500060916D01689FA001699F500D11248091CC
:102260006A01840F952F911D2817390731F487ECE7
:1022700090E19093190180931801809164019091ED
:1022800065010196909365018093640108959150D2
:1022900090937101D3CF0895E4E6F1E09285282F61
:1022A00026952695269530E0699F200D311D112435
:1022B0000784F089E02DE20FF31F877020E830E0FB
:1022C00002C0359527958A95E2F78081822B80831D
:1022D000089590916E0158E0959F90011124821706
:1022E00013062CF520916D01621708F5413011F4A9
:1022F0000C944C11E82FE695E695E6952E2F30E0EC
:10230000969F200D311D1124E0917301F09174010D
:10231000E20FF31F9081877041110AC02FE73FEF52
:1023200002C0359527958A95E2F792239083089508
:1023300020E830E002C0359527958A95E2F792278C
:10234000F5CFCF93DF93FB01DA016417750739F4FA
:10235000422F682F8E2FDF91CF910C946911461771
:10236000570720F4AB015527FD01DA01AF01477093
:102370005527CFEFD0E0BE0102C0759567954A950D
:10238000E2F7AB01362F93E0F695E7959A95E1F7E2
:1023900060916E01869FB0011124E60FF71FCD01F9
:1023A0008770992702C0D595C7958A95E2F79C2F2B
:1023B000909553E0B695A7955A95E1F7A60FB71FEC
:1023C000EA17FB0719F4392F342390E0213001F587
:1023D000AF014F5F5F4F60915B0170915C01E60F51
:1023E000F71F8081382B30838FEFE0915B01F091F4
:1023F0005C01E40FF51F4A175B0720F44F5F5F4F46
:102400008083F3CF8081982B9083DF91CF910895C3
:1024100021111EC0AF014F5F5F4F60915B01709152
:102420005C01E60FF71F3095808138233083E091FF
:102430005B01F0915C01E40FF51F4A175B0720F484
:102440004F5F5F4F1082F3CF909580819823DCCF50
:102450002230D9F6AF014F5F5F4F60915B01709101
:102460005C01E60FF71F808138273083E0915B0124
:10247000F0915C01E40FF51F80814A175B0728F497
:102480004F5F5F4F80958083F1CF9827BDCF2F920C
:102490003F924F925F926F927F928F929F92AF92F4
:1024A000BF92CF92DF92EF92FF920F931F93CF9341
:1024B000DF9300D01F92CDB7DEB7962F082F10E024
:1024C00060916E0170E0FB0153E0EE0FFF1F5A9523
:1024D000E1F7E017F1070CF4E4C030916D01391712
:1024E00008F4DFC0442E512CE415F5050CF4D9C0D6
:1024F000321708F4D6C084134FC030E0492F50E0A3
:1025000024173507C9F441E0692F0F900F900F9001
:10251000DF91CF911F910F91FF90EF90DF90CF90BF
:10252000BF90AF909F908F907F906F905F904F90F3
:102530003F902F900C9469112417350728F0E22F53
:10254000932F9A014E2F592F982F9770E0E8F0E0C3
:1025500002C0F595E7959A95E2F78695869586955A
:10256000629FD001639FB00D729FB00D11248A0F3E
:102570009B2F911D4217530708F493C0A0915B0154
:10258000B0915C01A80FB91FFC91FE2BFC93860F44
:10259000971F2F5F3F4FEECF92131BC021E0A20188
:1025A000B801892F0F900F900F90DF91CF911F915D
:1025B0000F91FF90EF90DF90CF90BF90AF909F90E2
:1025C0008F907F906F905F904F903F902F900C94E2
:1025D000A111E92EF12C481708F04EC0A8014419AA
:1025E00055092A018FEF422F50E05B834A83291758
:1025F00008F046C09701241B350B3B832A839FEFCD
:102600002A813B81421653060CF442C03A812B8149
:102610005B824A82432E522E1982440C551C620161
:102620004A815B81C41AD50A1A01220C331C912CF1
:10263000812C692E990F7708A82E880FBB088A81F4
:102640009B81881599056CF16E2D802F0E944C118D
:10265000D7FC07C099819130F1F40A0D1B1DC218F7
:10266000D30829812130D1F4E60CF71CC40CD51C09
:102670003FEF831A930AE3CF401A510A81E0B3CFA8
:102680004A815B814E195F095B834A8391E0B8CF31
:1026900031E03983C2CFE60CF71CE1CF0A0D1B1DD8
:1026A000E5CF0F900F900F90DF91CF911F910F9179
:1026B000FF90EF90DF90CF90BF90AF909F908F9062
:1026C0007F906F905F904F903F902F900895109261
:1026D00051011092500110924F0110924E01109230
:1026E0004D0110924C01089586B1282F30E0809161
:1026F0001001909111018130910551F018F002976D
:1027000091F0089581E090E02F30310539F008957F
:1027100030930F0120930E0182E090E0909311011D
:1027200080931001089580910E0190910F014091C6
:102730000401509105014331510531F140910601E9
:10274000509107014F3F5F4F21F410920701109203
:10275000060140910401509105014F5F5F4F509376
:10276000050140930401E0910401F091050144E06A
:10277000880F991F4A95E1F7822B932BEE0FFF1FCD
:10278000E45EFE4F9183808310921101109210013C
:10279000BECF1F920F920FB60F9211242F933F932B
:1027A0008F939F93AF93BF9380915701909158015E
:1027B000A0915901B0915A013091560123E0230FA5
:1027C0002D3758F50196A11DB11D20935601809318
:1027D000570190935801A0935901B0935A018091E9
:1027E000520190915301A0915401B091550101966D
:1027F000A11DB11D8093520190935301A0935401E8
:10280000B0935501BF91AF919F918F913F912F91BF
:102810000F900FBE0F901F90189526E8230F029679
:10282000A11DB11DD2CF1F920F920FB60F9211248E
:102830002F933F934F935F936F937F938F939F93C8
:10284000AF93BF93EF93FF93E0910201F0910301E7
:102850000995FF91EF91BF91AF919F918F917F91DA
:102860006F915F914F913F912F910F900FBE0F90FD
:102870001F9018951F920F920FB60F9211242F934D
:102880003F934F935F936F937F938F939F93AF93F8
:10289000BF93EF93FF93E0910001F091010109953F
:1028A000FF91EF91BF91AF919F918F917F916F9128
:1028B0005F914F913F912F910F900FBE0F901F90FE
:1028C00018951F920F920FB60F9211242F933F93DA
:1028D0004F935F936F937F938F939F93AF93BF9328
:1028E000EF93FF93E0911801F09119010995FF9181
:1028F000EF91BF91AF919F918F917F916F915F9178
:102900004F913F912F910F900FBE0F901F901895F0
:10291000CF93DF93CDB7DEB728970FB6F894DEBF1D
:102920000FBECDBF789484B5826084BD84B58160CC
:1029300084BD85B5826085BD85B5816085BD80918A
:102940006E00816080936E00109281008091810002
:1029500082608093810080918100816080938100FA
:10296000809180008160809380008091B1008460BC
:102970008093B1008091B00081608093B00080911D
:102980007A00846080937A0080917A0082608093DC
:102990007A0080917A00816080937A0080917A0039
:1029A000806880937A001092C10080E096E00E94D7
:1029B000F81990935C0180935B01009709F45EC065
:1029C00010925D0110925E0110925F011092610100
:1029D00010926001909374018093730180E1809361
:1029E0006E0180E680936D0110926601109267017E
:1029F000109268011092690181E0809370018093C8
:102A0000710123EF3CE030931B0120931A01579A88
:102A1000219A5F98299A239A92EC9093800099E1E9
:102A2000909381009CE390936A0197EC90936F01DF
:102A300097E09093720128E331E030936C0120938A
:102A40006B012FEF33E030938700209386002AE458
:102A500030E0309389002093880029E331E03093FF
:102A60006501209364012AE430E130931901209339
:102A7000180180936F0078940E94A10A84EC9FE073
:102A800090936301809362010E94A10A17B884E7C2
:102A900093E19093030180930201809169008C601F
:102AA00080936900E99A80916E01880F880F880FE2
:102AB0008C55990B97FD019695958795C12CE12C26
:102AC00000E030E020E048E650E06AE00E94B90A09
:102AD00020916B0130916C013C832B832630314077
:102AE00009F0A2C060916601709167018091680150
:102AF000909169010E94BB1823E333E34EE752E44F
:102B00000E94491920E030E043E853E40E9449194B
:102B100020E030E04AE754E40E941A180E948C1822
:102B20009B01AC0169017A0190EDC90E97E0D91EB5
:102B3000E11CF11CE8EE8E2EE3E09E2EA12CB12CC0
:102B40002B813C812630314009F081C060916601C3
:102B50007091670180916801909169010E94BB1892
:102B600023E333E34EE752E40E94491920E030E0CA
:102B700043E853E40E94491920E030E04AE754E476
:102B80000E941A180E948C189B01AC012C153D055F
:102B90004E055F05A8F20E94A10A8091060190915E
:102BA00007010196C9F1E0910601F0910701EE0FCE
:102BB000FF1FE45EFE4FA080B180809106019091DE
:102BC0000701019690930701809306012091060169
:102BD00030910701809104019091050182179307BC
:102BE00050F48FEF9FEF9093050180930401909331
:102BF0000701809306018091500190915101892B2A
:102C000009F4FAC180914E0190914F01009781F52E
:102C1000B0924F01A0924E0120E030E0232B09F446
:102C2000BCCF0E940000B9CF2091660130916701AE
:102C30004091680150916901A0E0BEE40E94DE1954
:102C400028EE33E040E050E00E94B6196BCF2091AF
:102C50006601309167014091680150916901A0E0DF
:102C6000BEE40E94DE19A50194010E94B6198ECF20
:102C7000FC013197EA30F10508F032C0EE5BF94E05
:102C80000C94D8194C1673169116AF16AF1605177B
:102C90000517E417EC17F41780914C0190914D0142
:102CA000892B59F421E030E030934D0120934C0101
:102CB000B0924501A0924401AFCFE0916201F09142
:102CC0006301949180914401899F802D1124809308
:102CD0005D013196E491EA9DA02C1124A0925E0141
:102CE0000E94671399CF33E0A316B10481F084E00A
:102CF000A816B10499F027EC32E1AA94AB2849F068
:102D000084EC9FE09093630180936201E9CF21EC12
:102D10003BE03093630120936201E2CF8EEB93E0BE
:102D2000F1CF80914C0190914D018330910568F471
:102D3000FC01EE0FFF1FEC5BFE4FB182A0820196FB
:102D400090934D0180934C0167CF2A2D409148010B
:102D500060914601809144010E944712C1CF2091A9
:102D60004C0130914D012330310570F4C9010196B9
:102D700090934D0180934C01220F331FF901EC5BBE
:102D8000FE4FB182A08248CF049719F58FEF909043
:102D900048018090460120914401309145013C83D7
:102DA0002B838F3FC1F0782C8A2D880D9927991F8E
:102DB0006C01890111277801E90CF11C7C141D04B8
:102DC00054F421E0A701B801872D0E94A11173944A
:102DD000F5CF81E0DCCF9B81990E282D492D682D00
:102DE000892F0E944712A80C2A2D4B81682D842F11
:102DF0000E9447122A2D492D682D892D0E944712C5
:102E00002A2D492D6A2D8B81A7CF20914C0130911D
:102E10004D012230310508F4A9CF069709F0D1C041
:102E20002FEF2A83DA2C10914601E0904401F090B4
:102E300045016E2CC501992798878F8322242394FE
:102E4000312C281A390A90E080E02F813885821BC6
:102E5000930B9C01220F331F3C832B833A813F3F0E
:102E600071F0B70177274F815885460F571F8F8123
:102E70009885681B790B21E0812F0E94A111612F99
:102E80006A0D8E2D0E944C11612F6A198E2D0E94A1
:102E90004C11612F8A2D8E0D0E944C11612F8E2DA9
:102EA0008A190E944C1101E01982512C412C5701C2
:102EB000BB242F813885421653060CF011CF37FC06
:102EC0000BC02150310938872F838B819C8102965A
:102ED0009C838B83280E391E9FEF491A590AC20121
:102EE000880F991F0196280E391E9F80792C710E2C
:102EF000812E8918312F300F3D83812F801B8E83C7
:102F00009A819F3FA1F12F813885D216130691F047
:102F100021E06501C40CD51CA6017501E418F50873
:102F2000B701872D0E94A11121E0A601B701882DCC
:102F30000E94A111398134151504B9F08F8198854B
:102F40004816590691F021E06C01CA0CDB1CA60161
:102F50007501E81AF90AB7018D810E94A11121E0DB
:102F6000A601B7018E810E94A1110983D92CE62CFC
:102F7000E00E672D8E2D0E944C11F62CF01A672D55
:102F80008F2D0E944C11682D8E2D0E944C11682DA2
:102F90008F2D0E944C11F92CF60C6D818F2D0E9403
:102FA0004C11E62CE9186D818E2D0E944C116E811A
:102FB0008F2D0E944C116E818E2D0E944C110F5F3F
:102FC00078CF31E03A832ECF81E0AA94AB2809F480
:102FD00080E080935F0184CE81E0AA94AB2809F45D
:102FE00080E0809360017CCE81E0AA94AB2809F454
:102FF00080E08093610174CE8CE0A816B10481F06A
:103000009BE1A916B10479F08A2D2AE0A216B10439
:1030100021F48DE00E94340C8AE00E94340CFCCD37
:103020000E94A10AF9CD81E090E090935101809334
:103030005001F2CD0E942E180C940F190E9408190D
:1030400058F00E94011940F029F45F3F29F00C94D8
:10305000F81851110C9443190C94FE180E94201971
:1030600068F39923B1F3552391F3951B550BBB27B7
:10307000AA2762177307840738F09F5F5F4F220FFC
:10308000331F441FAA1FA9F335D00E2E3AF0E0E8F3
:1030900032D091505040E695001CCAF72BD0FE2F3D
:1030A00029D0660F771F881FBB1F261737074807D1
:1030B000AB07B0E809F0BB0B802DBF01FF27935889
:1030C0005F4F3AF09E3F510578F00C94F8180C943D
:1030D00043195F3FE4F3983ED4F38695779567955F
:1030E000B795F7959F5FC9F7880F911D96958795BE
:1030F00097F90895E1E0660F771F881FBB1F6217DD
:1031000073078407BA0720F0621B730B840BBA0B9A
:10311000EE1F88F7E09508950E94281988F09F57C0
:1031200098F0B92F9927B751B0F0E1F0660F771FEB
:10313000881F991F1AF0BA95C9F714C0B13091F0E1
:103140000E944219B1E008950C944219672F782F1C
:103150008827B85F39F0B93FCCF3869577956795A6
:10316000B395D9F73EF490958095709561957F4F12
:103170008F4F9F4F0895E89409C097FB3EF49095B8
:103180008095709561957F4F8F4F9F4F9923A9F040
:10319000F92F96E9BB279395F695879577956795CF
:1031A000B795F111F8CFFAF4BB0F11F460FF1BC013
:1031B0006F5F7F4F8F4F9F4F16C0882311F096E9A6
:1031C00011C0772321F09EE8872F762F05C0662354
:1031D00071F096E8862F70E060E02AF09A95660F0D
:1031E000771F881FDAF7880F9695879597F90895C6
:1031F00097F99F6780E870E060E008959FEF80ECAA
:10320000089500240A94161617061806090608954C
:1032100000240A9412161306140605060895092EB2
:103220000394000C11F4882352F0BB0F40F4BF2B21
:1032300011F460FF04C06F5F7F4F8F4F9F4F089561
:1032400057FD9058440F551F59F05F3F71F0479557
:10325000880F97FB991F61F09F3F79F0879508953C
:10326000121613061406551FF2CF4695F1DF08C05B
:10327000161617061806991FF1CF86957105610578
:1032800008940895E894BB2766277727CB0197F920
:1032900008950E945C190C940F190E94011938F0CE
:1032A0000E94081920F0952311F00C94F8180C9442
:1032B000FE1811240C9443190E94201970F3959F55
:1032C000C1F3950F50E0551F629FF001729FBB271D
:1032D000F00DB11D639FAA27F00DB11DAA1F649FB9
:1032E0006627B00DA11D661F829F2227B00DA11D6C
:1032F000621F739FB00DA11D621F839FA00D611DF2
:10330000221F749F3327A00D611D231F849F600D12
:10331000211D822F762F6A2F11249F5750409AF03B
:10332000F1F088234AF0EE0FFF1FBB1F661F771FC7
:10333000881F91505040A9F79E3F510580F00C9492
:10334000F8180C9443195F3FE4F3983ED4F3869544
:1033500077956795B795F795E7959F5FC1F7FE2B32
:10336000880F911D9695879597F90895A1E21A2ED9
:10337000AA1BBB1BFD010DC0AA1FBB1FEE1FFF1F19
:10338000A217B307E407F50720F0A21BB30BE40B69
:10339000F50B661F771F881F991F1A9469F76095B0
:1033A0007095809590959B01AC01BD01CF0108956A
:1033B000EE0FFF1F0590F491E02D09940E94E9198A
:1033C000A59F900DB49F900DA49F800D911D112479
:1033D0000895A29FB001B39FC001A39F700D811DEE
:1033E0001124911DB29F700D811D1124911D08950E
:1033F0000F931F93CF93DF938230910510F482E0F7
:1034000090E0E0917701F091780130E020E0B0E0C9
:10341000A0E0309799F42115310509F44AC0281B22
:10342000390B24303105D8F58A819B8161157105EE
:1034300089F1FB0193838283FE0111C04081518198
:103440000281138148175907E0F04817590799F48A
:10345000109761F012960C93129713961C93329664
:10346000CF01DF91CF911F910F91089500937701C4
:1034700010937801F4CF2115310551F0421753070D
:1034800038F0A901DB019A01BD01DF01F801C1CFCC
:10349000EF01F9CF9093780180937701CDCFFE01B2
:1034A000E20FF31F819391932250310939832883CE
:1034B000D7CF2091750130917601232B41F42091D3
:1034C0000A0130910B013093760120937501209110
:1034D0000801309109012115310541F42DB73EB79E
:1034E00040910C0150910D01241B350BE0917501A9
:1034F000F0917601E217F307A0F42E1B3F0B28177B
:10350000390778F0AC014E5F5F4F2417350748F05C
:103510004E0F5F1F509376014093750181939193F5
:103520009FCFF0E0E0E09CCFCF93DF930097E9F0EE
:10353000FC01329713821282A0917701B091780139
:10354000ED0130E020E01097A1F420813181820F5D
:10355000931F20917501309176012817390709F0E2
:1035600061C0F0937601E0937501DF91CF910895EA
:10357000EA01CE17DF07E8F54A815B819E0141151C
:103580005105B1F7E901FB83EA8349915991C40FD1
:10359000D51FEC17FD0761F4808191810296840F9D
:1035A000951FE90199838883828193819B838A8314
:1035B000F0E0E0E012968D919C9113970097B9F599
:1035C0002D913C911197CD010296820F931F20916E
:1035D0007501309176012817390739F6309751F582
:1035E0001092780110927701B0937601A093750143
:1035F000BCCFD383C28340815181840F951FC817EC
:10360000D90761F44E5F5F4F88819981480F591F38
:10361000518340838A819B81938382832115310565
:1036200009F0B0CFF0937801E09377019ECFFD01D0
:10363000DC01C0CF13821282D7CFF894FFCFC6101F
:0C364000C610FFFFFFFF000079018000B2
:107800000C94343C0C94513C0C94513C0C94513CE1
:107810000C94513C0C94513C0C94513C0C94513CB4
:107820000C94513C0C94513C0C94513C0C94513CA4
:107830000C94513C0C94513C0C94513C0C94513C94
:107840000C94513C0C94513C0C94513C0C94513C84
:107850000C94513C0C94513C0C94513C0C94513C74
:107860000C94513C0C94513C11241FBECFEFD8E036
:10787000DEBFCDBF11E0A0E0B1E0ECE9FFE702C060
:1078800005900D92A230B107D9F712E0A2E0B1E065
:1078900001C01D92AD30B107E1F70E942D3D0C945F
:1078A000CC3F0C94003C982F959595959595959582
:1078B000905D8F708A307CF0282F295A8091C0000B
:1078C00085FFFCCF9093C6008091C00085FFFCCF60
:1078D0002093C6000895282F205DF0CF982F809127
:1078E000C00085FFFCCF9093C6000895EF92FF92F1
:1078F0000F931F93EE24FF2487018091C00087FD22
:1079000017C00894E11CF11C011D111D81E4E8164B
:1079100082E4F8068FE0080780E0180770F3E09132
:107920000401F091050109958091C00087FFE9CF1E
:107930008091C6001F910F91FF90EF9008950E94D3
:10794000763C982F8091C00085FFFCCF9093C600B5
:1079500091362CF490330CF09053892F089597555D
:10796000892F08951F930E949F3C182F0E949F3CCF
:107970001295107F810F1F9108951F93182F882350
:1079800021F00E94763C1150E1F71F9108951F935A
:10799000182F0E94763C803249F0809103018F5F5E
:1079A000809303018530C1F01F9108958091C0003C
:1079B00085FFFCCF84E18093C6008091C00085FFE5
:1079C000FCCF1093C6008091C00085FFFCCF80E102
:1079D0008093C6001F910895E0910401F091050184
:1079E00009951F9108950E94763C803241F0809164
:1079F00003018F5F80930301853081F008958091AA
:107A0000C00085FFFCCF84E18093C6008091C00058
:107A100085FFFCCF80E18093C6000895E0910401CA
:107A2000F09105010995089540E951E08823A1F0FE
:107A30002D9A28EE33E0FA013197F1F721503040CA
:107A4000D1F72D9828EE33E0FA013197F1F7215064
:107A50003040D1F7815061F708953F924F925F9285
:107A60006F927F928F929F92AF92BF92CF92DF924E
:107A7000EF92FF920F931F93CF93DF93000080E16B
:107A80008093C4001092C50088E18093C10086E015
:107A90008093C2005098589A259A81E00E94143D24
:107AA00024E1F22E9EE1E92E85E9D82E0FE0C02ECA
:107AB00010E1B12EAA24A394B1E49B2EA6E58A2E50
:107AC000F2E57F2EE0E26E2E79E4572E63E5462E36
:107AD00050E5352E0E94763C8033B1F18133B9F107
:107AE000803409F46FC0813409F476C0823409F41B
:107AF00085C0853409F488C0803531F1823521F1A3
:107B0000813511F1853509F485C0863509F48DC0BC
:107B1000843609F496C0843709F403C1853709F423
:107B200072C1863709F466C0809103018F5F80932C
:107B30000301853079F6E0910401F0910501099582
:107B40000E94763C803351F60E94F33CC3CF0E94E2
:107B5000763C803249F78091C00085FFFCCFF092DF
:107B6000C6008091C00085FFFCCF9092C600809136
:107B7000C00085FFFCCF8092C6008091C00085FFC9
:107B8000FCCF7092C6008091C00085FFFCCF609250
:107B9000C6008091C00085FFFCCF5092C600809146
:107BA000C00085FFFCCF4092C6008091C00085FFD9
:107BB000FCCF3092C6008091C00085FFFCCFB09210
:107BC000C60088CF0E94763C863808F4BDCF0E945C
:107BD000763C0E94F33C7ECF0E94763C803809F4CC
:107BE0009CC0813809F40BC1823809F43CC1883942
:107BF00009F48FC080E00E94C73C6CCF84E10E94F2
:107C0000BD3C0E94F33C66CF85E00E94BD3C0E94D3
:107C1000F33C60CF0E94763C809306010E94763C44
:107C2000809307010E94F33C55CF0E94763C80333D
:107C300009F41DC183E00E94BD3C80E00E94C73C66
:107C400049CF0E94763C809309020E94763C809343
:107C5000080280910C028E7F80930C020E94763C79
:107C6000853409F415C18091080290910902892B8D
:107C700089F000E010E00E94763CF801E85FFE4FDA
:107C800080830F5F1F4F80910802909109020817AF
:107C9000190788F30E94763C803209F045CF809125
:107CA0000C0280FF01C16091060170910701660F0F
:107CB000771F7093070160930601A0910802B091AD
:107CC00009021097C9F0E8E0F1E09B01AD014E0F09
:107CD0005F1FF999FECF32BD21BD819180BDFA9A17
:107CE000F99A2F5F3F4FE417F50799F76A0F7B1F4B
:107CF00070930701609306018091C00085FFFCCF5F
:107D0000F092C6008091C00085FFFCCFB092C60003
:107D1000E1CE83E00E94C73CDDCE82E00E94C73CFA
:107D2000D9CE0E94763C809309020E94763C8093D3
:107D300008028091060190910701880F991F909386
:107D40000701809306010E94763C853409F4A6C0A1
:107D500080910C028E7F80930C020E94763C8032D0
:107D600009F0B8CE8091C00085FFFCCFF092C6002C
:107D7000609108027091090261157105B9F140E046
:107D800050E080910C02A82FA170B82FB27011C0E2
:107D9000BB2309F45CC0E0910601F0910701319624
:107DA000F0930701E09306014F5F5F4F46175707B7
:107DB000E8F4AA2369F3F999FECF209106013091E6
:107DC000070132BD21BDF89A90B58091C00085FFB2
:107DD000FCCF9093C6002F5F3F4F30930701209355
:107DE00006014F5F5F4F4617570718F38091C00099
:107DF00085FDE5CE8091C00085FFF8CFE0CE81E023
:107E00000E94C73C67CE0E94763C803209F08CCE3F
:107E10008091C00085FFFCCFF092C6008091C00029
:107E200085FFFCCFE092C6008091C00085FFFCCFAB
:107E3000D092C6008091C00085FFFCCFC092C600E2
:107E40008091C00085FFFCCFB092C60043CEE09188
:107E50000601F091070194918091C00085FFFCCF4D
:107E60009093C6009CCF80E10E94C73C33CE0E9415
:107E7000763C0E94763C182F0E94763C112309F430
:107E800083C0113009F484C08FE00E94C73C22CE29
:107E900080910C02816080930C02E5CE80910C02EF
:107EA000816080930C0259CF809107018823880F4D
:107EB000880B8A2180930B02809106019091070123
:107EC000880F991F90930701809306018091080203
:107ED00080FF09C080910802909109020196909359
:107EE000090280930802F894F999FECF1127E091D6
:107EF0000601F0910701C8E0D1E08091080290915D
:107F00000902103091F40091570001700130D9F34B
:107F100003E000935700E89500915700017001308D
:107F2000D9F301E100935700E89509901990009169
:107F3000570001700130D9F301E000935700E89534
:107F40001395103498F011270091570001700130FB
:107F5000D9F305E000935700E895009157000170B0
:107F60000130D9F301E100935700E895329602976A
:107F700009F0C7CF103011F00296E5CF112480919F
:107F8000C00085FFB9CEBCCE8EE10E94C73CA2CD19
:0E7F900085E90E94C73C9ECDF894FFCF80008B
:00000001FF
